{
  "contractName": "AssetLending",
  "abi": [
    {
      "constant": false,
      "inputs": [
        {
          "name": "assetId",
          "type": "uint256"
        }
      ],
      "name": "fetchAssetDetails",
      "outputs": [
        {
          "name": "",
          "type": "address"
        },
        {
          "name": "",
          "type": "address"
        },
        {
          "name": "",
          "type": "uint256"
        },
        {
          "name": "",
          "type": "uint256"
        }
      ],
      "payable": false,
      "stateMutability": "nonpayable",
      "type": "function"
    },
    {
      "constant": false,
      "inputs": [
        {
          "name": "username",
          "type": "string"
        },
        {
          "name": "addr",
          "type": "address"
        }
      ],
      "name": "storeAddress",
      "outputs": [],
      "payable": false,
      "stateMutability": "nonpayable",
      "type": "function"
    },
    {
      "constant": false,
      "inputs": [
        {
          "name": "assetId",
          "type": "uint256"
        },
        {
          "name": "owner",
          "type": "address"
        },
        {
          "name": "deposit",
          "type": "uint256"
        },
        {
          "name": "rent",
          "type": "uint256"
        }
      ],
      "name": "addAsset",
      "outputs": [],
      "payable": false,
      "stateMutability": "nonpayable",
      "type": "function"
    },
    {
      "constant": false,
      "inputs": [
        {
          "name": "buyer",
          "type": "address"
        },
        {
          "name": "deposit",
          "type": "uint256"
        }
      ],
      "name": "buyerPaysOwner",
      "outputs": [],
      "payable": false,
      "stateMutability": "nonpayable",
      "type": "function"
    },
    {
      "constant": false,
      "inputs": [
        {
          "name": "username",
          "type": "string"
        }
      ],
      "name": "fetchAddress",
      "outputs": [
        {
          "name": "",
          "type": "address"
        }
      ],
      "payable": false,
      "stateMutability": "nonpayable",
      "type": "function"
    },
    {
      "constant": true,
      "inputs": [
        {
          "name": "",
          "type": "uint256"
        }
      ],
      "name": "assets",
      "outputs": [
        {
          "name": "primaryOwner",
          "type": "address"
        },
        {
          "name": "secondaryOwner",
          "type": "address"
        },
        {
          "name": "assetID",
          "type": "uint256"
        },
        {
          "name": "deposit",
          "type": "uint256"
        },
        {
          "name": "rent",
          "type": "uint256"
        }
      ],
      "payable": false,
      "stateMutability": "view",
      "type": "function"
    },
    {
      "constant": false,
      "inputs": [
        {
          "name": "buyer",
          "type": "address"
        },
        {
          "name": "assetId",
          "type": "uint256"
        }
      ],
      "name": "transferAssetOwnership",
      "outputs": [],
      "payable": false,
      "stateMutability": "nonpayable",
      "type": "function"
    },
    {
      "inputs": [],
      "payable": false,
      "stateMutability": "nonpayable",
      "type": "constructor"
    },
    {
      "anonymous": false,
      "inputs": [
        {
          "indexed": false,
          "name": "owner",
          "type": "address"
        },
        {
          "indexed": false,
          "name": "assetId",
          "type": "uint256"
        },
        {
          "indexed": false,
          "name": "rent",
          "type": "uint256"
        }
      ],
      "name": "assetAdded",
      "type": "event"
    },
    {
      "anonymous": false,
      "inputs": [
        {
          "indexed": false,
          "name": "assetId",
          "type": "uint256"
        },
        {
          "indexed": false,
          "name": "by",
          "type": "address"
        },
        {
          "indexed": false,
          "name": "to",
          "type": "address"
        }
      ],
      "name": "ownershipTransfered",
      "type": "event"
    }
  ],
  "bytecode": "0x6060604052341561000f57600080fd5b336000806101000a81548173ffffffffffffffffffffffffffffffffffffffff021916908373ffffffffffffffffffffffffffffffffffffffff160217905550610b4c8061005e6000396000f300606060405260043610610083576000357c0100000000000000000000000000000000000000000000000000000000900463ffffffff1680632feefc0f14610088578063447be9c31461012c5780634dc19c91146101a85780635b8d2905146101fc578063b9a7cf7e1461023e578063cf35bdd0146102db578063e912d68714610386575b600080fd5b341561009357600080fd5b6100a960048080359060200190919050506103c8565b604051808573ffffffffffffffffffffffffffffffffffffffff1673ffffffffffffffffffffffffffffffffffffffff1681526020018473ffffffffffffffffffffffffffffffffffffffff1673ffffffffffffffffffffffffffffffffffffffff16815260200183815260200182815260200194505050505060405180910390f35b341561013757600080fd5b6101a6600480803590602001908201803590602001908080601f0160208091040260200160405190810160405280939291908181526020018383808284378201915050505050509190803573ffffffffffffffffffffffffffffffffffffffff16906020019091905050610479565b005b34156101b357600080fd5b6101fa600480803590602001909190803573ffffffffffffffffffffffffffffffffffffffff16906020019091908035906020019091908035906020019091905050610527565b005b341561020757600080fd5b61023c600480803573ffffffffffffffffffffffffffffffffffffffff1690602001909190803590602001909190505061076b565b005b341561024957600080fd5b610299600480803590602001908201803590602001908080601f01602080910402602001604051908101604052809392919081815260200183838082843782019150505050505091905050610851565b604051808273ffffffffffffffffffffffffffffffffffffffff1673ffffffffffffffffffffffffffffffffffffffff16815260200191505060405180910390f35b34156102e657600080fd5b6102fc60048080359060200190919050506108e6565b604051808673ffffffffffffffffffffffffffffffffffffffff1673ffffffffffffffffffffffffffffffffffffffff1681526020018573ffffffffffffffffffffffffffffffffffffffff1673ffffffffffffffffffffffffffffffffffffffff1681526020018481526020018381526020018281526020019550505050505060405180910390f35b341561039157600080fd5b6103c6600480803573ffffffffffffffffffffffffffffffffffffffff1690602001909190803590602001909190505061095c565b005b6000806000806001600086815260200190815260200160002060000160009054906101000a900473ffffffffffffffffffffffffffffffffffffffff166001600087815260200190815260200160002060010160009054906101000a900473ffffffffffffffffffffffffffffffffffffffff166001600088815260200190815260200160002060030154600160008981526020019081526020016000206004015493509350935093509193509193565b806003836040518082805190602001908083835b6020831015156104b2578051825260208201915060208101905060208303925061048d565b6001836020036101000a038019825116818451168082178552505050505050905001915050908152602001604051809103902060006101000a81548173ffffffffffffffffffffffffffffffffffffffff021916908373ffffffffffffffffffffffffffffffffffffffff1602179055505050565b6000809054906101000a900473ffffffffffffffffffffffffffffffffffffffff1673ffffffffffffffffffffffffffffffffffffffff163373ffffffffffffffffffffffffffffffffffffffff1614151561058257600080fd5b8360008090505b6004805490508110156105cc57816004828154811015156105a657fe5b906000526020600020900154141515156105bf57600080fd5b8080600101915050610589565b846001600088815260200190815260200160002060000160006101000a81548173ffffffffffffffffffffffffffffffffffffffff021916908373ffffffffffffffffffffffffffffffffffffffff160217905550846001600088815260200190815260200160002060010160006101000a81548173ffffffffffffffffffffffffffffffffffffffff021916908373ffffffffffffffffffffffffffffffffffffffff160217905550856001600088815260200190815260200160002060020181905550836001600088815260200190815260200160002060030181905550826001600088815260200190815260200160002060040181905550600480548060010182816106db9190610acf565b9160005260206000209001600088909190915055507fba8a51b9222752b4de89f46adebf9a2483f6605622a9258b7e7a7c45f96464e2338785604051808473ffffffffffffffffffffffffffffffffffffffff1673ffffffffffffffffffffffffffffffffffffffff168152602001838152602001828152602001935050505060405180910390a1505050505050565b80600260008473ffffffffffffffffffffffffffffffffffffffff1673ffffffffffffffffffffffffffffffffffffffff16815260200190815260200160002054111561084d5780600260008473ffffffffffffffffffffffffffffffffffffffff1673ffffffffffffffffffffffffffffffffffffffff1681526020019081526020016000206000828254039250508190555080600260003373ffffffffffffffffffffffffffffffffffffffff1673ffffffffffffffffffffffffffffffffffffffff168152602001908152602001600020600082825401925050819055505b5050565b60006003826040518082805190602001908083835b60208310151561088b5780518252602082019150602081019050602083039250610866565b6001836020036101000a038019825116818451168082178552505050505050905001915050908152602001604051809103902060009054906101000a900473ffffffffffffffffffffffffffffffffffffffff169050919050565b60016020528060005260406000206000915090508060000160009054906101000a900473ffffffffffffffffffffffffffffffffffffffff16908060010160009054906101000a900473ffffffffffffffffffffffffffffffffffffffff16908060020154908060030154908060040154905085565b6000809054906101000a900473ffffffffffffffffffffffffffffffffffffffff1673ffffffffffffffffffffffffffffffffffffffff163373ffffffffffffffffffffffffffffffffffffffff161415156109b757600080fd5b816001600083815260200190815260200160002060010160006101000a81548173ffffffffffffffffffffffffffffffffffffffff021916908373ffffffffffffffffffffffffffffffffffffffff1602179055507f29be9e6929051a4e192ca5bbf8e5f60d0f42cde7812084019f8ef2ca8345ba96813384604051808481526020018373ffffffffffffffffffffffffffffffffffffffff1673ffffffffffffffffffffffffffffffffffffffff1681526020018273ffffffffffffffffffffffffffffffffffffffff1673ffffffffffffffffffffffffffffffffffffffff168152602001935050505060405180910390a1610acb82600160008481526020019081526020016000206003015461076b565b5050565b815481835581811511610af657818360005260206000209182019101610af59190610afb565b5b505050565b610b1d91905b80821115610b19576000816000905550600101610b01565b5090565b905600a165627a7a72305820a53d9a773b5dc0e886fad8bf1d62fdbb7967269b2668b445e65b6ab7cc754cca0029",
  "source": "pragma solidity ^0.4.0;\r\ncontract AssetLending{\r\n    event assetAdded(address owner,uint assetId,uint rent);\r\n    event ownershipTransfered(uint assetId,address by,address to);\r\n\r\n    address owner;\r\n    \r\n    function AssetLending(){                \r\n        owner=msg.sender;\r\n    }\r\n    \r\n    struct asset{                                          //details of asset added to structure\r\n        address primaryOwner;\r\n        address secondaryOwner;\r\n        uint assetID;\r\n        uint deposit;\r\n        uint rent;\r\n    }\r\n    \r\n    mapping (uint=>asset) public assets;                   //mapping is done of assetid with structure \r\n    mapping (address=>uint) balance;\r\n      mapping (string=>address) userAddress;\r\n    \r\n    \r\n    function storeAddress(string username,address addr){\r\n        userAddress[username]=addr;\r\n    }\r\n    \r\n    function fetchAddress(string username) returns (address){\r\n        return userAddress[username];\r\n    }\r\n    \r\n    modifier isOwner(){                                    //checks ownership of assetadder is contract owner\r\n        require(msg.sender==owner);\r\n        _;\r\n    }\r\n    \r\n    modifier uniqueId(uint assetId){                       //checks if the assetid is unique or not\r\n        for(uint i=0;i<assetCounter.length;i++){\r\n            require(assetCounter[i]!=assetId);\r\n        }\r\n        _;\r\n    }\r\n    \r\n    uint[] assetCounter;                                   //maintaining registry of asset Id\r\n    \r\n    function addAsset(uint assetId,address owner,uint deposit,uint rent) isOwner uniqueId(assetId){\r\n        assets[assetId].primaryOwner=owner;\r\n        assets[assetId].secondaryOwner=owner;\r\n        assets[assetId].assetID=assetId;\r\n        assets[assetId].deposit=deposit;\r\n        assets[assetId].rent=rent;\r\n\r\n        // assetCounter.length+=1;\r\n        // assetCounter[assetCounter.length-1]=assetId;\r\n        assetCounter.push(assetId);\r\n        \r\n        assetAdded(msg.sender,assetId,rent);                  //Trigger event\r\n    }\r\n    \r\n    function fetchAssetDetails(uint assetId) returns (address ,address,uint,uint){                 \r\n        return (assets[assetId].primaryOwner,assets[assetId].secondaryOwner,assets[assetId].deposit,assets[assetId].rent);\r\n    }\r\n    \r\n    modifier onlyOwner(uint assetId){\r\n        require(assets[assetId].primaryOwner==msg.sender);  //primaryOwner changes secondary ownership\r\n        _;\r\n    }\r\n    \r\n    function transferAssetOwnership(address buyer,uint assetId) isOwner {                //onlyOwner(assetId)\r\n        assets[assetId].secondaryOwner=buyer;\r\n        ownershipTransfered(assetId,msg.sender,buyer);\r\n        buyerPaysOwner(buyer,assets[assetId].deposit);      //for making payment transfering to new function\r\n    }\r\n    \r\n    function buyerPaysOwner(address buyer,uint deposit){\r\n        if(balance[buyer]>deposit){\r\n            balance[buyer]-=deposit;                         //sending from buyer to owner(msg.sender)\r\n            balance[msg.sender]+=deposit;\r\n        }\r\n    }\r\n}",
  "sourcePath": "C:\\Users\\Siddharth\\Desktop\\SID\\ALSC\\PROJECT\\new-asset-lending\\contracts\\AssetLending.sol",
  "compiler": {
    "name": "solc",
    "version": "0.4.18+commit.9cf6e910.Emscripten.clang"
  },
  "schemaVersion": "1.0.1",
  "updatedAt": "2017-12-23T08:02:23.806Z"
}